:020000040800F2
:1000000000100020D52300087109000873090008BA
:1000100000000000000000000000000000000000E0
:100020000000000000000000000000007B09000844
:1000300000000000000000007D0900087F090008A2
:1000400025240008000000002524000825240008BD
:10005000252400084D0500087105000881050008E9
:1000600000000000252400088D1700084503000843
:10007000252400082524000825240008000000008D
:10008000252400082524000800000000252400087D
:1000900025240008252400085D19000825240008EF
:1000A0002524000849170008350300082524000806
:1000B00025240008000000000000000000000000EF
:1000C00010B5064C2378002B07D1054B002B02D02E
:1000D000044800E000BF0123237010BD6800002029
:1000E0000000000070240008044B10B5002B03D062
:1000F0000349044800E000BF10BDC04600000000F6
:100100006C00002070240008002243088B4274D346
:1001100003098B425FD3030A8B4244D3030B8B4208
:1001200028D3030C8B420DD3FF22090212BA030C11
:100130008B4202D31212090265D0030B8B4219D3F2
:1001400000E0090AC30B8B4201D3CB03C01A524112
:10015000830B8B4201D38B03C01A5241430B8B425A
:1001600001D34B03C01A5241030B8B4201D30B0343
:10017000C01A5241C30A8B4201D3CB02C01A52416A
:10018000830A8B4201D38B02C01A5241430A8B422D
:1001900001D34B02C01A5241030A8B4201D30B0216
:1001A000C01A5241CDD2C3098B4201D3CB01C01A30
:1001B000524183098B4201D38B01C01A524143093A
:1001C0008B4201D34B01C01A524103098B4201D328
:1001D0000B01C01A5241C3088B4201D3CB00C01A95
:1001E000524183088B4201D38B00C01A524143080D
:1001F0008B4201D34B00C01A5241411A00D2014632
:10020000524110467047FFE701B5002000F006F8A4
:1002100002BDC0460029F7D076E770477047C04658
:10022000D0400B1CD1409C46203AD3401843524248
:1002300063469340184370470023C25C0133002A91
:10024000FBD1581E7047000010B50D4CA368DB07AA
:1002500013D5A3689B0710D40423A2681A420CD1BB
:10026000A26808490A401343A360042322681A4283
:10027000FCD02360206C80B210BD01F019F8F4E7C7
:1002800000240140E8FFFF7F73B58020234A8000EF
:100290009169234C01439161C0219369214A034034
:1002A0000193019B136809040B43F7381360FF386F
:1002B00001F0E4FB802207215201E26062691A4DDD
:1002C0008A4362618022D20522618022802152020B
:1002D000A262A068090628400143A160A368002B20
:1002E000FCDB052001F0CAFB0122A3682B4013436D
:1002F000A36023681342FCD0FA25FF260B4CAD0007
:10030000FFF7A2FF0A4B30405C43013D4440002D03
:10031000F6D1200001F0BAFB73BDC04600100240C8
:100320000024014008270140E8FFFF7FC59D1C8194
:100330009301000110B5024800F0EAF810BDC04674
:1003400088240008802201210D4B520210B55A600A
:100350000C4A13688B4313600B4BC02218005201E8
:1003600099681142FCD180238268110019401A4219
:10037000FAD1064A1368002B01D01160984710BDCE
:100380000000024058000240003800408400002075
:1003900010B50400FFF750FF0100200000F002F844
:1003A00010BD0000802270B5124C060023680D00BD
:1003B000CB189200934205D3032323600E4BA380F6
:1003C0002E23A371802223689200E918914203D35F
:1003D0000A48FFF7DDFF70BD09482A0018183100F0
:1003E00001F066FB2368ED18002325606419237172
:1003F000F1E7C046740700202E2E00009524000867
:1004000078070020F0B587B004000E0001F0E2FA92
:1004100025002B78002B0AD1291B2000FFF7C2FFF3
:100420003748FFF7B5FF01F0C7FA07B0F0BD6F1C02
:10043000252B63D1391B20000139FFF7B3FF30684A
:100440003B780090AC1C642B31D008D8582B10D0CE
:10045000632B26D02B48252B2DD02B482BE0732B3C
:1004600029D001AD00221C21AC46782B26D0702B60
:10047000F3D101AA1C23150001000F27D9403940F0
:10048000CFB23037092900DD0737043B177001323E
:10049000191DF1D100231D482B72FFF779FF2800A9
:1004A00009E001216846FFF77DFF0436B0E701A9A6
:1004B00001F0B1FA01A8FFF76BFFF6E703000F2781
:1004C000CB400F251F402B420ED1002910D0002A0F
:1004D0000ED104390B1DF1D101AB9A1800230B4842
:1004E0001370FFF755FFE5E7FBB23733092F01DC47
:1004F0003B0030336546AB540132EAE73D0088E704
:10050000B4240008AE240008B0240008AB2400087E
:100510000FB407B504A901C90191FFF773FF03B038
:1005200008BC04B01847000001238340054910B5FA
:100530004A691A40934204D14B61034B8000C3586F
:10054000984710BD0004014088000020074A10B5FC
:100550001368002B02D00021116098470020FFF79C
:10056000E3FF0120FFF7E0FF10BDC046C8000020F8
:1005700010B50220FFF7D8FF0320FFF7D5FF10BD0D
:1005800010B5042420000134FFF7CEFF102CF9D160
:1005900010BD10B500F0E2FF10BD0000F7B50193EB
:1005A00080231B0213600E4B04001E6808003100FC
:1005B0001500FFF7A9FD0090009B5A1E009200D283
:1005C000F7BD20002A003100019B064FB8472000EC
:1005D0002A003100019B034FB847A419ECE7C0463D
:1005E0000C01002001000020F7B58024802707259A
:1005F00024020B4E146041183F060194884200D13A
:10060000F7BD037801309C466446DB081B022C4092
:10061000234333431360019B17601360EEE7C0462A
:100620000000071F70B5134C0D00A04204D00A0053
:100630000100200001F03CFA0021042000F00FFF2F
:1006400000211A2000F00BFF012120000A4AFFF7C9
:10065000CBFF0121042000F002FF691E012D03D011
:10066000054A601CFFF7C0FF01211A2000F0F7FEC9
:1006700070BDC046100100201800004830B51D00B4
:100680009C100F4B85B01C604B1E5B196D46441EC1
:10069000A218A8702A7110122B242A22E87002A82E
:1006A000028081701A1205212C80C2700371FFF73D
:1006B000B9FF05216846FFF7B5FF05B030BDC0465C
:1006C0000C01002010B5074B012118701800FFF72E
:1006D000A9FF0121042000F0C2FE00211A2000F031
:1006E000BEFE10BD1001002010B55B005200FFF7E8
:1006F000C5FF2C20FFF7E6FF10BD0000102310B54A
:10070000024801210370FFF78DFF10BD100100208A
:10071000F7B5102000F046FE0021102000F09FFEEB
:10072000042000F03FFE112000F03CFE1A2000F0F3
:1007300039FE0120404200F035FE1B2000F032FE61
:100740000F2000F02FFE002000F02CFE012000F012
:1007500029FE022000F026FE082000F023FE0920DA
:1007600000F020FE0A2000F01DFE0B2000F01AFE13
:100770000C2000F017FE01211A2000F070FE01216C
:10078000042000F06CFE01200021404200F067FED2
:1007900001211B2000F063FE01210F2000F05FFE0D
:1007A0000021112000F05BFE142001F067F9012107
:1007B000112000F054FE274801F060F9264C2678FD
:1007C000264D002E2AD1082225492648FFF7A0FEF3
:1007D0006A46254B68461380244B02210193FFF79C
:1007E00021FF01A8C178FF394B1E99410331FFF762
:1007F00019FFA022310052003000F023FFF73EFF26
:100800002923280001212B70FFF70CFF184801F065
:1008100035F93100FF2000F05BFEF7BD2E706678E1
:100820008023A71C34009C4322003900681C01F07F
:100830003FF976B2611C2800FFF7F4FE3C19002E48
:10084000BDDAFA2320789B005843651C01F016F9A5
:100850002C00B4E710270000F2240008100100204B
:10086000FF100000B724000836080000B10010FF98
:10087000C0D40100F7B5B722040000211D48920042
:1008800001F034F93F2700231B4E3278194DD11067
:100890000191E158D010890C394029543820D100F9
:1008A000014050110143E058144D800A384068540B
:1008B0001F20E158124D8908104039402954072162
:1008C0000A400199013609020A430E490A430E49BA
:1008D0005A500433402BD8D12D20FFF7F3FE0B4A9A
:1008E00080210448FFF780FE01211A2000F0B7FDA7
:1008F000F7BDC04624010020E22400084401002086
:10090000840100200000071FCC00002018000048D0
:1009100010B5034B034A8900FFF740FE10BDC046E7
:10092000CC00002018000048F8B50F48FFF7A2FFE0
:1009300088272C20FFF7C6FE00257F000B4E4022A3
:100940002900300001F0D2F80A2410213000013CC7
:10095000FFF7DEFF002CF8D11135BD42EED12100AA
:100960001A2000F07CFDF8BD64250008000400207A
:10097000704710B500F09CFC10BD70477047704781
:1009800001211E4A13680B4313601D4B1D495A6811
:100990001140A02292030A430F215A60DA6A8A4367
:1009A000DA628022196852040A431A608022920493
:1009B00019681142FCD0F0215A688A435A605A687B
:1009C000ED398A43110002220A430C215A605A6809
:1009D0000A40082AFBD15A680B490A405A600B4B5F
:1009E0000B4A1A600B4B0C4A5A6000229A6005327F
:1009F0001A601968013A0A431A60704700200240E1
:100A000000100240FFFFC2FFFFF8FFFF780900203F
:100A1000006CDC0210E000E07FBB00007FB501202D
:100A20001C4B9969014399619A69024080200092A8
:100A3000009AD96940050143D961DA6902408020F2
:100A40000192019A59698002014359615A69024031
:100A500080200292029A5969C002014359615A6981
:100A6000024080200392039A5969000301435961AF
:100A700080215A69C90302400492049A5A690A43C0
:100A80005A615B690B400593059BFFF779FF07B03F
:100A900000BDC04600100240044AC18901239142B2
:100AA00002D1034A13707047024AFBE701110000AC
:100AB00040040020420400200B4B10B51C78002C91
:100AC00009D101221A70094B0121E05C013400F0C8
:100AD00083FC082CF7D1064B1B78002B02D0012297
:100AE000044B1A7010BDC04641040020A425000824
:100AF0007C09002042040020F0B5174B06001A784C
:100B000085B0002A06D0002214491A700E23144A18
:100B100000F040F9134B1B78002B1AD06C460025CF
:100B20002700114BE85C00F0BDFC002803D1FF2337
:100B30002570637002340135082DF2D13A0030007F
:100B40000649E31B00F026F9002802D00023054ADD
:100B5000137005B0F0BDC046400400200111000034
:100B60005600002042040020A425000810B504000F
:100B7000174AE3891030934226D009D8812B0ED032
:100B8000832B19D01B0B012B08D1124A137005E0DF
:100B9000822292019342F5D1FFF76CFE10BDE38AE9
:100BA000A28A618A208AFFF79FFD01220A4B1A70F0
:100BB000084B02321A70F1E70022074B1A70217BB2
:100BC0008908FFF7A5FEE9E7207CFFF7E2FCE5E7EF
:100BD00001200000430400207C0900207047000031
:100BE000F7B5254B06001D78002D40D0012D3FD1D3
:100BF0006B469C1DA0232200238020499E3B00F0D1
:100C0000C9F8002833D078232200238030001C4903
:100C1000763B00F0BFF8002829D004238C212370F4
:100C200022002B003000490100F0B4F800281ED04B
:100C300002232200237030002B00124900F0AAF892
:100C4000002814D000272B00220030000E49277006
:100C500000F0A0F8B8420AD00223220030000B496D
:100C6000278000F097F8B84201D0034B1F70F7BD02
:100C7000014B013D1D70FAE7430400208111000083
:100C8000821100008210000081100000831000001B
:100C900010B5FF20FFF77DFC10BD000010B500F07F
:100CA00066FA0020FFF775FCFFF728FD03220749CD
:100CB0000B6893431A00022313430B600423044A76
:100CC00011690B43136130BFFDE7C046007000405F
:100CD00000ED00E010B50021032000F0C0FB10BDC6
:100CE00010B50448FFF714FC0122034B1A70FFF7FC
:100CF000F1FF10BDAC2500084404002070B5FFF7DB
:100D0000E9FF1A4C1A4D23681A4E002B13D02B788A
:100D1000022B05D10021FC221748297000F0E6FEC5
:100D20003368002B05D02268144B1A60002323601F
:100D300070BD236833603268114B9A4200D1114B69
:100D400023602B780C48012B0DD101332B700E4BF7
:100D500021680380FC220D4B00F0B2FC012103202E
:100D600000F07DFBE4E70A4BF2E7C04648040020B0
:100D70005407002058040020580600205C0400207E
:100D8000600400205C050020CD7A0000FD0C000806
:100D9000CDB3FFFF70B515000A00010006481E0024
:100DA00000F096F9041E05D0002D03D03200290072
:100DB00000F07EFE200070BD5806002010B50C002B
:100DC0000978002906D00021FFF7E4FF002801D0B0
:100DD0000023237010BD0000F7B5734D734C2B78C2
:100DE000002B1FD0002601202E7000F0ACF931003E
:100DF000032000F034FB00F0EDFD00F0F3FC6C4B41
:100E00001E606C4B26601E6000F0D6FDFA2080004C
:100E100000F034FE300000F096F9674B1E60FFF7DB
:100E20006DFFF7BDFFF7DAFEFFF746FE00F0E6FCC8
:100E3000236800900191002B3ED1604B1A685968DD
:100E40000A4303D10099019A19605A60009E019FDC
:100E500019685A68761A9741002F02D1584A96426B
:100E60000CD90099019A19605A6001232B70554BD7
:100E70001B78002BD5D1FFF711FFD2E7524D2B780D
:100E8000002BCED0514B9E42CBD900F0A5FB4A4A55
:100E9000041E01D01760C4E7136801331360FA22FF
:100EA00092009342BDD92B78002BBAD0010048485C
:100EB000FFF72EFB2C70DEE7424B1A78002A01D197
:100EC00001321A7000223C4B3F4C1A602378934247
:100ED00007D101213E48FFF71BFB01232370FFF7D9
:100EE000D7FE01260099019A344B19605A600022FE
:100EF000314B1A602D4B1C68364B2188994206D025
:100F0000354B99421AD03548FFF702FB2E7000F09E
:100F100061FD274B254C1A68226000221A6000F000
:100F20004BFD244B1B68002B04D12B78002B01D1E7
:100F3000FFF7E4FE2368002BD4D172E7637B012B1B
:100F400029D0022B2BD0002B04D1E389002B01D117
:100F5000234B1E70234B1B78002B01D0204B1E709F
:100F6000214F3B78D8B2002B0FD10C331F4A1C49BC
:100F7000FFF724FF3000FFF733FE0220FFF7BCFD30
:100F80001B4B9B78002B00D03E70200000F05AF8DD
:100F90000028D3D1BBE72000FFF7E8FDDAE7200007
:100FA000FFF77AFDD6E7C04644040020580400202D
:100FB0005C040020480400204C0400205004002061
:100FC000404B4C00460400207D09002050C3000027
:100FD000B6250008CDB30000CD7A0000BE2500087C
:100FE000450400207C09002054070020D425000877
:100FF0005806002010B5032000F0D4F9002103208A
:1010000000F02DFA062000F0CDF90121062000F0B5
:1010100026FA10BD10B5074B074A1A60074B084A5D
:101020001A60FFF7E7FFFFF773FB00F0DDFAFFF749
:1010300065FE10BD80090020D50C00088409002041
:10104000E10C00080322F8B5057B8378E91D040054
:101050009143002099420FDA2A1DA018007BFF2837
:101060000BD16519697C00208B4205DD8A4204DBC7
:101070001548FFF74DFA0020F8BD0220E2780E0077
:101080008243E2706218107B2700021D8D18AC4667
:101090000C360025A6190C379C4503DD0B48FFF7DD
:1010A00037FAE8E7AC4673597B5104356045F9DC03
:1010B000FF23A21813732418FC3B073098434118F0
:1010C00061740120D8E7C046E0250008FA25000831
:1010D000F8B51C0005000F0016000B0A01D000F047
:1010E000E7F8330C01D000F0E3F82B00AA780C33BA
:1010F0009B182A00211DFC320020D21A91420CD8E4
:101100009E70E4B2360A1C705F70DE70181D0323F7
:1011100007349C43AB78E418AC70F8BD10B50249B5
:10112000024800F07DFB10BD1D11000810270000D3
:1011300010B51C2000F036F91D2000F033F91E20F8
:1011400000F030F910BD10B501001C2000F087F947
:1011500010BD10B501001D2000F081F910BD10B5C3
:101160000120FFF7F0FF0020FFF7EDFF10BD10B5E5
:101170000120FFF7EEFF0020FFF7EBFF10BD10B5D9
:101180001E2000F07EF910BDF7B51A48FFF7C0F930
:10119000FF20FFF7FEF900F031FB06000F0000967C
:1011A000019700F02BFB801BB941002902D1124BA3
:1011B000984203D91148FFF7ABF9F7BD00F01EFBC9
:1011C00002000B0004000D0000980199121A8B41D7
:1011D0001100002B02D10A4B994205D900F08CF87E
:1011E000FFF7A2FB00940195FA20800000F046FC76
:1011F000D7E7C046172600087F841E003726000860
:10120000A086010070B5102000F0CCF8002110205D
:1012100000F025F9FFF7EEFEFFF78AFF00F01AFB5A
:10122000FFF732F8FFF77AFFFFF7F4FE00F050F80F
:101230001849041E00D118491848FFF769F9002C15
:1012400020D0FFF7A1FF00F043F8002818D1144880
:10125000FFF75EF900F0D2FA04000D0000F0CEFABC
:10126000001BA941002902D10E4B984205D900F07C
:10127000C5FA04000D00FFF782FFFFF7ADFDEDE7B3
:101280000948E5E70948FFF743F98020FFF781F9AE
:10129000E0E7C0465D260008782600088C26000896
:1012A000A8260008E0930400D22600080B270008B7
:1012B00010B50548FFF72CF900F08CFBFFF75FFF36
:1012C000024800F0DBFBF9E72E270008A0860100AA
:1012D000064B10B51968064B0648CC18631E9C4196
:1012E000E4B22200FFF714F9200010BD00FC000852
:1012F000114152213527000830B5204C204D23687C
:1013000085B0AB4204D11F48FFF702F905B030BDEC
:1013100021001D48FFF7FCF800F036FF011E03D046
:101320001A48FFF7F5F8F1E70123694600900190AC
:1013300001A80294039300F0E7FF011E06D0009A73
:101340001348FFF7E5F800F033FFDFE72100002343
:1013500002200B4A00F062FF011E03D00D48FFF788
:10136000D7F8F0E70C48FFF7D3F823680B48AB42F7
:1013700000D00B48FFF7CCF8E5E7C04600FC0008BA
:10138000EFBEADDE6B27000897270008CD270008C9
:10139000E52700080C280008252800084A2800082E
:1013A000702800087FB5C3B2FF2B13D000220123A1
:1013B0000592039204920F320240019393400093EE
:1013C0009023032100118002DB050291C0186946B9
:1013D00000F0A8FB07B000BD30B5C3B204000D009B
:1013E00087B0FF2B15D018220021684600F07EFB45
:1013F0006B1C10D1022304930F220123224093403F
:101400000093902320118002DB056946C01800F08C
:1014100089FB07B030BD012D01D10495ECE7002D0B
:10142000FBD0FFF745FFE7E77FB5C3B2FF2B14D032
:101430000F220123024093400093022303220193D1
:10144000049390230292002200118002DB05059193
:10145000C0186946039200F065FB07B000BDC3B237
:10146000FF2B0BD090220311D2059B029B180F2259
:1014700010400E3A8240002901D09A6170479A626A
:10148000FCE790220311D2059B029B180F2210400B
:101490000E3A8240586901001140090482430A4310
:1014A0009A617047C3B2FF2B0ED090220311D20570
:1014B0009B029B180F2210400E3A82401869104080
:1014C000801A43425841704701204042FBE7000028
:1014D00070B5050002201E4A0E00D1698AB0014392
:1014E000D161D3690121034001930E30019BFFF7C5
:1014F0009BFF00232F22174C013D2360A262E5626F
:101500000125626920002A436261802221680A4322
:10151000226005968026602276003100029202AA9F
:1015200003930493069307930893099300F008FC30
:101530000823094A51680B435360236A1E432662FD
:1015400023682B43236063691D4365610AB070BD46
:10155000001002400004004018040040014BD86312
:101560007047C0460004004080220A4B5201D968EF
:101570000A43DA60DA6808490A40DA608022074BD9
:1015800092001A60B82252015A60202259680A4318
:101590005A60704700100240FFEFFFFF003001402B
:1015A00010220121084B5A60F0325A60074A136832
:1015B0008B431360064A13688B431360054A3F311F
:1015C00013688B43136070470000024030000240F4
:1015D0001C0002400030014090230120DB051B6904
:1015E0005B0998437047000080202D4B30B5996906
:1015F0004001014399619A6989B002400092009AC2
:10160000012259699020114359615B6902241340FA
:101610000193019BE0230293DD3B0493002302A985
:10162000C005059306920793039400F07BFAFFF739
:101630009BFF1C491C480D681C4B05402B430B604D
:101640001B4B1A6810408222920102431A60082242
:101650000868104308601968C2200C431C601968B0
:1016600080000A431A60042219680A431A60114B69
:1016700011491A5811408022D2030A431A5080227D
:10168000D2001A6010301A580C4911408022D20141
:101690000A431A50802292041A6009B030BDC04635
:1016A00000100240300002400F80FFFF9010000049
:1016B0001C00024000E100E0FFFF00FFFF00FFFF11
:1016C000F7B51B4F1E003B680D0014000190002B66
:1016D00001D0FFF7EDFD174B17495A683E600A40ED
:1016E000164E17495A608E60CD604A681548120C34
:1016F000120422434A60019AC26086604268120C5A
:1017000012041443012244605C6814435C600C685A
:1017100014430C6001680A430260022259680A43BC
:101720005A60402219680A431A60FFF718FDF7BD96
:101730005807002000300140FF9FFFFF0C300140A0
:101740001C000240300002400B4B10B599680B4B57
:101750000B485A680B4B92B25B689BB2FEF7D8FEFF
:10176000094C2368002B01D1FFF7A2FDFFF718FFFA
:101770002368984710BDC046003001403000024049
:101780009D2800081C0002408409002010B5124C5E
:10179000FFF7E5FC23689B060BD5FFF7E0FCFFF79E
:1017A000FFFE0E4A1368002B0CD0002111609847F1
:1017B00008E023685B0605D510236360084B1B68AF
:1017C000002BF4D123681B0602D423681B0501D526
:1017D000FFF76EFD10BDC046000002405807002014
:1017E00080090020002210B5034B1A60FFF7D8FED5
:1017F000FFF7BAFE10BDC0465807002030B5064AB4
:101800000648516A04684568536A9942F9D8180035
:1018100000210019694130BD0048014060070020E7
:1018200070B50D00040000F0D5F8084B20001D60D5
:10183000074B5A6A0A2C00DA0A208018032280B269
:10184000524258631A6100F0B7F870BD6807002073
:1018500000480140F0B5364B00241868354B8FB076
:10186000984203D93449FEF74FFC441E01AE1422BE
:101870000021300000F03AF98020304AC00291691E
:101880000143916193692E490340C5200093009B59
:101890002C4B80001A581140802212040A431A501F
:1018A0008022D2031A6000253480274C274B310058
:1018B00020007560B360F560356100F0C7F98022E3
:1018C0002368234993432360A36801260B407021BA
:1018D000A36063680BA88B436360A36829009343EC
:1018E000A36002235B422361E368743A3343E360FD
:1018F00000F0FCF8FA23174F31009B0006AA3800CD
:1019000009930695079508950A9500F019FA04229F
:10191000BB6929009343BB610223E2680E4813436D
:10192000E36023681E432660FFF77AFF0FB0F0BD27
:10193000780900203F420F0040420F000010024093
:10194000FFFF00FF00E100E000480140FFFF000052
:10195000F8BFFFFF000400408813000070B5134C6F
:101960002369DB070CD5022380200021104D5B4248
:10197000236140022A686B6812184B412A606B6031
:1019800000F028F823699B070BD50022094B1D683E
:101990001A6003235B42236100F00EF8002D03D18F
:1019A00070BD00F009F8FBE7A847F9E700480140DF
:1019B0006007002068070020054A1378013B5BB2EE
:1019C000002B01DD137070470023137062B6FAE735
:1019D0006C070020044A137801335BB21370012BAB
:1019E00000D172B67047C0466C07002010B5041EC7
:1019F0000ED0FEF721FC431EE318A34201D80020BD
:101A000010BD22781978013B21705A700134F4E737
:101A100001204042F4E7F0B587B00C1E029029D0B7
:101A200000250A27C21786184B1E56400593300022
:101A30000495390001350395FEF7ECFB059B303129
:101A40005955300039000196FEF75EFB019B0600F8
:101A5000092BECD8029B002B04DA2D23049D039A5A
:101A60000235A354002620006655FFF7BFFF300063
:101A700007B0F0BD01204042FAE700000C2310B58A
:101A80005843014B984710BD51000020054B0649B3
:101A90001A6810B55143414004481960FEF738FDFB
:101AA00010BDC0467007002093010001B528000852
:101AB00030B5032A11D904000C43032523002B4021
:101AC0002C420AD19408A400CD58C5500433A34237
:101AD000FAD1C018C91803231A4000239A4200D132
:101AE00030BDCC5CC4540133F8E7000070B5032A64
:101AF0000CD90600830709D193081C00084D4D43FB
:101B0000013C08D29B00C01803231A40030012189E
:101B1000934202D170BD20C6F2E719700133F7E796
:101B2000010101019023F7B5DB0504000D00984287
:101B30000DD0414B98420AD0404B984207D0404BC1
:101B4000984204D03F4B984201D0FFF7B1FB2B687D
:101B50003D4A013B934201D9FFF7AAFB6B68032B77
:101B600001D9FFF7A5FB2B69022B01D9FFF7A0FBD9
:101B7000002300932B68009A1800D04000D1FEBDCE
:101B8000012200991E008A401640134245D03700BA
:101B90006B687743013B012B1AD8AB68012B03D943
:101BA000032B01D0FFF784FB03227A43A3689343FE
:101BB000AA687A431343A360EB68012B01D9FFF7AE
:101BC00077FB2A686368E96893434A431343636079
:101BD00003217943CB4301932B69E2687B438A431A
:101BE0001343E3606B68022B10D16B69072B01D99B
:101BF000FFF75EFB6A69FF2E12D83B000F217B4383
:101C000059435A43266A8E43164326626A682368FC
:101C10005743019A13401F432760009B0133A8E7F5
:101C20000F21360A7643764371435643636A8B43EA
:101C30001E436662EAE7C046000400480008004808
:101C4000000C004800140048FEFF000070B5334E41
:101C500004000D00B04213D0314B984210D0314BEC
:101C600098420DD0304B98420AD0304B984207D062
:101C70002F4B984204D02F4B984201D0FFF718FB0E
:101C80006B6810221900914307D0402B05D04022E9
:101C90009343202B01D0FFF70BFBEB68264A13423E
:101CA00005D080229200934201D0FFF701FB236808
:101CB000B44202D01A4A944208D1702293436A680F
:101CC0001343B4420ED0164A94420BD0164A9442A3
:101CD00008D0164A944205D0154A944202D0154ABB
:101CE000944203D1154A1340EA6813432360AB685A
:101CF000E3622B88A362B44208D00C4B9C4205D00F
:101D00000B4B9C4202D00B4B9C4201D12B692363AD
:101D10000123626900201343636170BD002C014000
:101D2000000400400010004000200040004001403E
:101D30000044014000480140FFFEFFFFFFFCFFFFA1
:101D40008023F7B55B0004001500994200D171E1D2
:101D500006D8012966D0102900D1DBE00120FEBDA4
:101D600080235B019942F9D1A44FB84204D0A44B1F
:101D7000984201D0FFF79CFA30232A689A4303D097
:101D8000402A01D0FFF794FA6B68012B01D9FFF7C5
:101D90008FFA02262B69B34301D0FFF789FA6B69EA
:101DA000B34301D0FFF784FAAB68012B01D9FFF7E9
:101DB0007FFA236A934994480B402362236A66683A
:101DC000E2690240286800021043904A00901A40DD
:101DD0002B691B0313436A680B4012031A430192D9
:101DE000BC4208D08A4B9C4205D08A4B9C4202D010
:101DF000894B9C420FD1894FEB693B4201D0FFF7E1
:101E000057FAAB693B4201D0FFF752FA844B1E40B0
:101E1000AB699B011E43009B6660E361EB68236432
:101E2000019B75E0754EB04210D0754B98420DD0B5
:101E30007C4B98420AD0764B984207D0754B98421B
:101E400004D0754B984201D0FFF732FA30232A684C
:101E50009A4303D0402A01D0FFF72AFA6B68012B7E
:101E600001D9FFF725FA02232A699A4301D0FFF727
:101E70001FFAAB68012B01D9FFF71AFA02236A692E
:101E80009A4301D0FFF714FA01217320236A8B4390
:101E90002362236A6768A26982432868104302228A
:101EA00093432A69019013436A688B431A43009253
:101EB000B44208D0564B9C4205D0564B9C4202D0AF
:101EC000554B9C421ED1554EEB69334201D0FFF772
:101ED000EFF9AB69334201D0FFF7EAF90823009A22
:101EE0003E409A436B69504F9B0013430422934337
:101EF000AA6892001A43AB6900921E43EB693E4008
:101F00005F003743019B6760A361EB686363009BDD
:101F10002362FDE0394FB84207D0394B984204D0D4
:101F20003B4B984201D0FFF7C3F930232A689A430C
:101F300003D0402A01D0FFF7BBF96B68012B01D910
:101F4000FFF7B6F902232A699A4301D0FFF7B0F9E7
:101F5000AB68012B01D9FFF7ABF902236A699A43F9
:101F600001D0FFF7A5F91021236A27488B4323628C
:101F7000236A6668A2690240286800021043202292
:101F800093431A002B6901901B0113436A688B432A
:101F900012011A430092BC4208D01D4B9C4205D04E
:101FA0001C4B9C4202D01C4B9C4220D11B4FEB6926
:101FB0003B4201D0FFF77CF9AB693B4201D0FFF710
:101FC00077F98023009A9A436B699B01134340225F
:101FD0009343AA6892011A430092144BAA693340B2
:101FE00096001E43124B1E40EB69DB001E43019B13
:101FF0006660A361EB68A36389E7C046002C0140DB
:1020000000040040FFEFFFFFFF8CFFFFFFDFFFFF3B
:10201000004001400044014000480140FFFEFFFF36
:10202000FFBFFFFF00200040FFFDFFFFFFFBFFFFA2
:10203000FFF7FFFF374B984204D0374B984201D04F
:10204000FFF736F930232A689A4303D0402A01D09B
:10205000FFF72EF96B68012B01D9FFF729F902234D
:102060002A699A4301D0FFF723F9AB68012B01D904
:10207000FFF71EF902236A699A4301D0FFF718F9A6
:102080007321226A254B1A402262266A6768E26938
:1020900000938A43296811430191214A29693240FA
:1020A0000E0216436A681E401A4B120216439C42E7
:1020B00008D01C4B9C4205D01B4B9C4202D01B4BB2
:1020C0009C421FD1EB69009A134201D0FFF7F0F850
:1020D000AB69009A134201D0FFF7EAF86A69144B22
:1020E000334096021E43134BAA691E40AB689B0205
:1020F0001E43114B3B4017011F43104B1F40EB6920
:102100005B011F43019B6760E361EB68E363266249
:10211000002024E6002C014000040040FFFEFFFFE9
:10212000FFFDFFFF00400140004401400048014026
:10213000FFF7FFFFFFFBFFFFFFEFFFFFFFDFFFFFEB
:10214000014B18687047C046880900200C4B1021CD
:10215000D86830B502000A40084205D0022209487A
:10216000C4692243C2610A000420D968014205D033
:102170000121044C0243E5692943E161DA6030BD85
:102180000020024090090020064B00201A69120628
:1021900006D5054A5A60054A5A6018690006C00FFC
:1021A0007047C0460020024023016745AB89EFCD50
:1021B0008023034A002011690B4313617047C04616
:1021C0000020024070B50400FFF7BAFF01260500A9
:1021D000114B1A00D968314211D12021D868084228
:1021E00000D0D960D168102308001840194202D1EC
:1021F000D3685B0708D5FFF7A9FF012004E0611C45
:10220000E8D0002C01D1032070BDFFF799FF401BDF
:10221000A042DDD9F7E7C04600200240F0B585B006
:102220000393244B019102921A7E04000220012A9A
:102230003DD001221A76631E834201D9FFF738F898
:10224000F8218022019B09065B185202934201D3B8
:10225000FFF72EF81848FFF7B5FF002824D1260015
:10226000012C02D0022C00D00426002402980399ED
:102270002201FDF7D5FF002201270E4B0F4DDA6139
:102280002B69019A3B432B6163009B1880B2188035
:102290000948FFF797FF2B69BB432B61002803D147
:1022A000E419E3B29E42E1D80022024B1A7605B04F
:1022B000F0BDC0469009002050C30000002002403D
:1022C0000022064BDA61064B043219690A431A618F
:1022D000402219690A431A617047C04690090020DC
:1022E000002002400022064BDA61064B02321969D7
:1022F0000A431A614022586119690A431A617047FA
:102300009009002000200240F8B52E4F04003B7ECB
:102310000E000220012B11D001233B762368012BF4
:1023200001D9FEF7C5FF2368012B13D12648FFF71B
:1023300049FF002803D0012000233B76F8BDFFF7BA
:10234000BFFF2148FFF73EFF0421204A13698B435A
:102350001361F1E7F822636812069B18802252028B
:10236000934201D3FEF7A4FFA36862689B02013A7F
:102370009B18174A934201D9FEF79AFF1248FFF7BC
:1023800021FF0028D7D101235B423360656801300B
:10239000A36862689B029B18AB42CDD92800FFF767
:1023A000A1FF0948FFF70EFF0221084A13698B437A
:1023B0001361002801D03560BEE78023DB00ED18F3
:1023C000E6E7C0469009002050C30000002002400C
:1023D000FFFF00080D488546002103E00C4B5B58C9
:1023E000435004310B480C4B42189A42F6D30B4A27
:1023F00002E0002313600432094B9A42F9D3FEF73E
:102400000DFB00F011F8FEF7FDFEFEE700100020C6
:10241000CC28000800000020640000206800002094
:10242000B0090020FEE7000070B500260C4D0D4CF1
:10243000641BA410A64209D1002600F019F80A4D29
:102440000A4C641BA410A64205D170BDB300EB5822
:1024500098470136EEE7B300EB5898470136F2E7AC
:10246000C4280008C4280008C4280008C828000898
:10247000F8B5C046F8BC08BC9E467047F8B5C046E3
:08248000F8BC08BC9E46704741
:102488005350492068616E646C65722100444D4563
:102498005347206C696E6520746F6F206C6F6E6790
:1024A800210A0030780025003F3F3F000D0A0063F5
:1024B8006F6E6669677572652073637265656E3ADB
:1024C8002046524D435452313D2570204D414443DE
:1024D800544C3D257020535049000009121B2128F7
:1024E800333A424B5059636A7178EF03038002CF45
:1024F8000300C130ED0464031281E803850078CB42
:1025080005392C003402F70120EA020000C001233B
:10251800C10110C5023E28C70186360108370100EF
:102528003A0155B1020018B603088227F2010026C5
:102538000101E00F0F312B0C0E084EF13707100385
:102548000E0900E10F000E1403110731C148080FEE
:102558000C31360F118078000000000000000000E8
:10256800FFFFFF002121FF00C493FF003581FF001A
:1025780009F6FF00A39C240052DC7800AD3F000060
:10258800FFF28700C42E8E009F83A4006C405C007D
:10259800C4CDE5003D46910000000000FF1513146E
:1025A80016505117535049206572726F7200636F4D
:1025B8006E6E202564006D61676963206D69736DB7
:1025C800617463683A20257800000000000000006C
:1025D800E536FA166EA0EA1D696E76616C696420AC
:1025E80073757065722D6672616D6520256420258E
:1025F8006400696E76616C69642073757065722D0C
:102608006672616D65202564202564202564005369
:1026180074617274696E6720666972737420626F80
:102628006F7420746573742073637265656E0054EB
:102638006573742073637265656E20636F6D706C6B
:1026480065746564206166746572203520736563FE
:102658006F6E64730054525545202873686F77690C
:102668006E6720746573742073637265656E2900E4
:1026780046414C534520286E6F726D616C20626F25
:102688006F742900466972737420626F6F742063D7
:102698006865636B20726573756C743A20257300E6
:1026A800466972737420626F6F742070726F63650D
:1026B800737320636F6D706C6574656420737563E4
:1026C8006365737366756C6C79005741524E494E59
:1026D800473A20466972737420626F6F7420666C83
:1026E8006167206D6179206E6F742068617665205E
:1026F8006265656E2073657420636F7272656374BA
:102708006C79004E6F726D616C20626F6F74202D52
:1027180020736B697070696E6720746573742073B9
:10272800637265656E0050414E49432100506572E1
:1027380073697374656E742073746F726167652052
:10274800636865636B3A206D616769633D3078251E
:102758003038782C2066697273745F626F6F743DCD
:10276800256400466972737420626F6F7420666C0A
:10277800616720616C7265616479207365742C20CF
:10278800736B697070696E6720777269746500573A
:10279800726974696E6720666972737420626F6FFC
:1027A8007420636F6D706C6574696F6E20666C6100
:1027B8006720746F20666C617368206174203078BC
:1027C8002530387800466C61736820756E6C6F63CD
:1027D8006B206661696C65643A20256400466C610B
:1027E8007368206572617365206661696C65643A17
:1027F8002025642C20706167655F6572726F723A7C
:1028080020256400466C6173682070726F6772617E
:102818006D206661696C65643A20256400466972BA
:10282800737420626F6F7420666C616720777269B9
:102838007474656E207375636365737366756C6C09
:102848007900466972737420626F6F7420666C61D8
:102858006720766572696669656420737563636568
:10286800737366756C6C79005741524E494E473AFE
:1028780020466972737420626F6F7420666C61679A
:1028880020766572696669636174696F6E20666136
:10289800696C6564005350492D532068616E646CFF
:1028A8006572212025782025642F25640072616EC9
:0C28B800646F6D20736565642025780056
:0428C400E90000081F
:0428C800C100000843
:1028CC00F7B5802480250F274118019124062D028D
:1028DC000199884200D1F7BD0678013031003940AA
:1028EC008900C95836091160B6001460156014606F
:1028FC0015601460156014601560F658166014604D
:10290C001560146015601460156014601560DFE7C5
:10291C000138FDD1704701000200030004000500DE
:04292C00060007009A
:04000005080023D5F7
:00000001FF
